{
  "_format": "hh-sol-artifact-1",
  "contractName": "MultiAsset",
  "sourceName": "contracts/MultiAsset.sol",
  "abi": [
    {
      "inputs": [],
      "stateMutability": "nonpayable",
      "type": "constructor"
    },
    {
      "anonymous": false,
      "inputs": [
        {
          "indexed": true,
          "internalType": "address",
          "name": "account",
          "type": "address"
        },
        {
          "indexed": true,
          "internalType": "address",
          "name": "operator",
          "type": "address"
        },
        {
          "indexed": false,
          "internalType": "bool",
          "name": "approved",
          "type": "bool"
        }
      ],
      "name": "ApprovalForAll",
      "type": "event"
    },
    {
      "anonymous": false,
      "inputs": [
        {
          "indexed": false,
          "internalType": "uint256",
          "name": "",
          "type": "uint256"
        }
      ],
      "name": "MintedTokenId",
      "type": "event"
    },
    {
      "anonymous": false,
      "inputs": [
        {
          "indexed": true,
          "internalType": "address",
          "name": "previousOwner",
          "type": "address"
        },
        {
          "indexed": true,
          "internalType": "address",
          "name": "newOwner",
          "type": "address"
        }
      ],
      "name": "OwnershipTransferred",
      "type": "event"
    },
    {
      "anonymous": false,
      "inputs": [
        {
          "indexed": true,
          "internalType": "address",
          "name": "operator",
          "type": "address"
        },
        {
          "indexed": true,
          "internalType": "address",
          "name": "from",
          "type": "address"
        },
        {
          "indexed": true,
          "internalType": "address",
          "name": "to",
          "type": "address"
        },
        {
          "indexed": false,
          "internalType": "uint256[]",
          "name": "ids",
          "type": "uint256[]"
        },
        {
          "indexed": false,
          "internalType": "uint256[]",
          "name": "values",
          "type": "uint256[]"
        }
      ],
      "name": "TransferBatch",
      "type": "event"
    },
    {
      "anonymous": false,
      "inputs": [
        {
          "indexed": true,
          "internalType": "address",
          "name": "operator",
          "type": "address"
        },
        {
          "indexed": true,
          "internalType": "address",
          "name": "from",
          "type": "address"
        },
        {
          "indexed": true,
          "internalType": "address",
          "name": "to",
          "type": "address"
        },
        {
          "indexed": false,
          "internalType": "uint256",
          "name": "id",
          "type": "uint256"
        },
        {
          "indexed": false,
          "internalType": "uint256",
          "name": "value",
          "type": "uint256"
        }
      ],
      "name": "TransferSingle",
      "type": "event"
    },
    {
      "anonymous": false,
      "inputs": [
        {
          "indexed": false,
          "internalType": "string",
          "name": "value",
          "type": "string"
        },
        {
          "indexed": true,
          "internalType": "uint256",
          "name": "id",
          "type": "uint256"
        }
      ],
      "name": "URI",
      "type": "event"
    },
    {
      "inputs": [
        {
          "internalType": "address",
          "name": "account",
          "type": "address"
        },
        {
          "internalType": "uint256",
          "name": "id",
          "type": "uint256"
        }
      ],
      "name": "balanceOf",
      "outputs": [
        {
          "internalType": "uint256",
          "name": "",
          "type": "uint256"
        }
      ],
      "stateMutability": "view",
      "type": "function"
    },
    {
      "inputs": [
        {
          "internalType": "address[]",
          "name": "accounts",
          "type": "address[]"
        },
        {
          "internalType": "uint256[]",
          "name": "ids",
          "type": "uint256[]"
        }
      ],
      "name": "balanceOfBatch",
      "outputs": [
        {
          "internalType": "uint256[]",
          "name": "",
          "type": "uint256[]"
        }
      ],
      "stateMutability": "view",
      "type": "function"
    },
    {
      "inputs": [
        {
          "internalType": "address",
          "name": "account",
          "type": "address"
        },
        {
          "internalType": "address",
          "name": "operator",
          "type": "address"
        }
      ],
      "name": "isApprovedForAll",
      "outputs": [
        {
          "internalType": "bool",
          "name": "",
          "type": "bool"
        }
      ],
      "stateMutability": "view",
      "type": "function"
    },
    {
      "inputs": [
        {
          "internalType": "address",
          "name": "recipient",
          "type": "address"
        },
        {
          "internalType": "string",
          "name": "_uri",
          "type": "string"
        }
      ],
      "name": "mint",
      "outputs": [
        {
          "internalType": "uint256",
          "name": "",
          "type": "uint256"
        }
      ],
      "stateMutability": "nonpayable",
      "type": "function"
    },
    {
      "inputs": [
        {
          "internalType": "address",
          "name": "recipient",
          "type": "address"
        },
        {
          "internalType": "string[]",
          "name": "_uris",
          "type": "string[]"
        }
      ],
      "name": "mintBatch",
      "outputs": [
        {
          "internalType": "uint256[]",
          "name": "",
          "type": "uint256[]"
        }
      ],
      "stateMutability": "nonpayable",
      "type": "function"
    },
    {
      "inputs": [],
      "name": "owner",
      "outputs": [
        {
          "internalType": "address",
          "name": "",
          "type": "address"
        }
      ],
      "stateMutability": "view",
      "type": "function"
    },
    {
      "inputs": [],
      "name": "renounceOwnership",
      "outputs": [],
      "stateMutability": "nonpayable",
      "type": "function"
    },
    {
      "inputs": [
        {
          "internalType": "address",
          "name": "from",
          "type": "address"
        },
        {
          "internalType": "address",
          "name": "to",
          "type": "address"
        },
        {
          "internalType": "uint256[]",
          "name": "ids",
          "type": "uint256[]"
        },
        {
          "internalType": "uint256[]",
          "name": "amounts",
          "type": "uint256[]"
        },
        {
          "internalType": "bytes",
          "name": "data",
          "type": "bytes"
        }
      ],
      "name": "safeBatchTransferFrom",
      "outputs": [],
      "stateMutability": "nonpayable",
      "type": "function"
    },
    {
      "inputs": [
        {
          "internalType": "address",
          "name": "from",
          "type": "address"
        },
        {
          "internalType": "address",
          "name": "to",
          "type": "address"
        },
        {
          "internalType": "uint256",
          "name": "id",
          "type": "uint256"
        },
        {
          "internalType": "uint256",
          "name": "amount",
          "type": "uint256"
        },
        {
          "internalType": "bytes",
          "name": "data",
          "type": "bytes"
        }
      ],
      "name": "safeTransferFrom",
      "outputs": [],
      "stateMutability": "nonpayable",
      "type": "function"
    },
    {
      "inputs": [
        {
          "internalType": "address",
          "name": "operator",
          "type": "address"
        },
        {
          "internalType": "bool",
          "name": "approved",
          "type": "bool"
        }
      ],
      "name": "setApprovalForAll",
      "outputs": [],
      "stateMutability": "nonpayable",
      "type": "function"
    },
    {
      "inputs": [
        {
          "internalType": "bytes4",
          "name": "interfaceId",
          "type": "bytes4"
        }
      ],
      "name": "supportsInterface",
      "outputs": [
        {
          "internalType": "bool",
          "name": "",
          "type": "bool"
        }
      ],
      "stateMutability": "view",
      "type": "function"
    },
    {
      "inputs": [
        {
          "internalType": "address",
          "name": "newOwner",
          "type": "address"
        }
      ],
      "name": "transferOwnership",
      "outputs": [],
      "stateMutability": "nonpayable",
      "type": "function"
    },
    {
      "inputs": [
        {
          "internalType": "uint256",
          "name": "tokenId",
          "type": "uint256"
        }
      ],
      "name": "uri",
      "outputs": [
        {
          "internalType": "string",
          "name": "",
          "type": "string"
        }
      ],
      "stateMutability": "view",
      "type": "function"
    }
  ],
  "bytecode": "0x60806040523480156200001157600080fd5b506040805160208101909152600081526200002c816200008d565b50600062000039620000a6565b600380546001600160a01b0319166001600160a01b038316908117909155604051919250906000907f8be0079c531659141344cd1fd0a4f28419497f9722a3daafe3b4186f6b6457e0908290a3506200018d565b8051620000a2906002906020840190620000aa565b5050565b3390565b828054620000b89062000150565b90600052602060002090601f016020900481019282620000dc576000855562000127565b82601f10620000f757805160ff191683800117855562000127565b8280016001018555821562000127579182015b82811115620001275782518255916020019190600101906200010a565b506200013592915062000139565b5090565b5b808211156200013557600081556001016200013a565b6002810460018216806200016557607f821691505b602082108114156200018757634e487b7160e01b600052602260045260246000fd5b50919050565b611dc3806200019d6000396000f3fe608060405234801561001057600080fd5b50600436106100ce5760003560e01c80638da5cb5b1161008c578063e985e9c511610066578063e985e9c5146101b4578063ed0e31de146101c7578063f242432a146101da578063f2fde38b146101ed576100ce565b80638da5cb5b14610179578063a22cb4651461018e578063d0def521146101a1576100ce565b8062fdd58e146100d357806301ffc9a7146100fc5780630e89341c1461011c5780632eb2c2d61461013c5780634e1273f414610151578063715018a614610171575b600080fd5b6100e66100e1366004611544565b610200565b6040516100f39190611bb3565b60405180910390f35b61010f61010a366004611621565b610257565b6040516100f391906117ee565b61012f61012a366004611659565b61029f565b6040516100f391906117f9565b61014f61014a36600461131b565b610343565b005b61016461015f36600461156d565b6105a9565b6040516100f391906117ad565b61014f6106c9565b610181610752565b6040516100f391906116f6565b61014f61019c3660046114be565b610762565b6100e66101af3660046114f8565b610830565b61010f6101c23660046112e9565b6108ae565b6101646101d5366004611424565b6108dc565b61014f6101e83660046113c1565b6109f6565b61014f6101fb3660046112c8565b610b8c565b60006001600160a01b0383166102315760405162461bcd60e51b8152600401610228906118a8565b60405180910390fd5b506000908152602081815260408083206001600160a01b03949094168352929052205490565b60006001600160e01b03198216636cdb3d1360e11b148061028857506001600160e01b031982166303a24d0760e21b145b80610297575061029782610c4d565b90505b919050565b6000818152600560205260408120805460609291906102bd90611c47565b80601f01602080910402602001604051908101604052809291908181526020018280546102e990611c47565b80156103365780601f1061030b57610100808354040283529160200191610336565b820191906000526020600020905b81548152906001019060200180831161031957829003601f168201915b5093979650505050505050565b81518351146103645760405162461bcd60e51b815260040161022890611b2a565b6001600160a01b03841661038a5760405162461bcd60e51b815260040161022890611982565b610392610c66565b6001600160a01b0316856001600160a01b031614806103b857506103b8856101c2610c66565b6103d45760405162461bcd60e51b8152600401610228906119c7565b60006103de610c66565b90506103ee8187878787876105a1565b60005b845181101561053b57600085828151811061041c57634e487b7160e01b600052603260045260246000fd5b60200260200101519050600085838151811061044857634e487b7160e01b600052603260045260246000fd5b602090810291909101810151600084815280835260408082206001600160a01b038e1683529093529190912054909150818110156104985760405162461bcd60e51b815260040161022890611a19565b6104a28282611c30565b60008085815260200190815260200160002060008c6001600160a01b03166001600160a01b03168152602001908152602001600020819055508160008085815260200190815260200160002060008b6001600160a01b03166001600160a01b0316815260200190815260200160002060008282546105209190611c18565b925050819055505050508061053490611c82565b90506103f1565b50846001600160a01b0316866001600160a01b0316826001600160a01b03167f4a39dc06d4c0dbc64b70af90fd698a233a518aa5d07e595d983b8c0526c8f7fb878760405161058b9291906117c0565b60405180910390a46105a1818787878787610c6a565b505050505050565b606081518351146105cc5760405162461bcd60e51b815260040161022890611ae1565b6000835167ffffffffffffffff8111156105f657634e487b7160e01b600052604160045260246000fd5b60405190808252806020026020018201604052801561061f578160200160208202803683370190505b50905060005b84518110156106c15761068685828151811061065157634e487b7160e01b600052603260045260246000fd5b602002602001015185838151811061067957634e487b7160e01b600052603260045260246000fd5b6020026020010151610200565b8282815181106106a657634e487b7160e01b600052603260045260246000fd5b60209081029190910101526106ba81611c82565b9050610625565b509392505050565b6106d1610c66565b6001600160a01b03166106e2610752565b6001600160a01b0316146107085760405162461bcd60e51b815260040161022890611a63565b6003546040516000916001600160a01b0316907f8be0079c531659141344cd1fd0a4f28419497f9722a3daafe3b4186f6b6457e0908390a3600380546001600160a01b0319169055565b6003546001600160a01b03165b90565b816001600160a01b0316610774610c66565b6001600160a01b0316141561079b5760405162461bcd60e51b815260040161022890611a98565b80600160006107a8610c66565b6001600160a01b03908116825260208083019390935260409182016000908120918716808252919093529120805460ff1916921515929092179091556107ec610c66565b6001600160a01b03167f17307eab39ab6107e8899845ad3d59bd9653f200f220920489ca2b5937696c318360405161082491906117ee565b60405180910390a35050565b600061083c6004610d78565b60006108486004610d81565b90506108668482600160405180602001604052806000815250610d85565b6108708184610e6c565b7f8e4d833e2f0f87220c2357de908c66b5743bc38d82fb110a0b02cb87a9c3b1018160405161089f9190611bb3565b60405180910390a19392505050565b6001600160a01b03918216600090815260016020908152604080832093909416825291909152205460ff1690565b606080606060005b84518110156109da576108f76004610d78565b60006109036004610d81565b90506109368187848151811061092957634e487b7160e01b600052603260045260246000fd5b6020026020010151610e6c565b7f8e4d833e2f0f87220c2357de908c66b5743bc38d82fb110a0b02cb87a9c3b101816040516109659190611bb3565b60405180910390a18084838151811061098e57634e487b7160e01b600052603260045260246000fd5b60200260200101818152505060018383815181106109bc57634e487b7160e01b600052603260045260246000fd5b602090810291909101015250806109d281611c82565b9150506108e4565b506106c185838360405180602001604052806000815250610e90565b6001600160a01b038416610a1c5760405162461bcd60e51b815260040161022890611982565b610a24610c66565b6001600160a01b0316856001600160a01b03161480610a4a5750610a4a856101c2610c66565b610a665760405162461bcd60e51b815260040161022890611939565b6000610a70610c66565b9050610a90818787610a8188611011565b610a8a88611011565b876105a1565b6000848152602081815260408083206001600160a01b038a16845290915290205483811015610ad15760405162461bcd60e51b815260040161022890611a19565b610adb8482611c30565b6000868152602081815260408083206001600160a01b038c81168552925280832093909355881681529081208054869290610b17908490611c18565b92505081905550856001600160a01b0316876001600160a01b0316836001600160a01b03167fc3d58168c5ae7397731d063d5bbf3d657854427343f4c083240f7aacaa2d0f628888604051610b6d929190611bbc565b60405180910390a4610b8382888888888861106a565b50505050505050565b610b94610c66565b6001600160a01b0316610ba5610752565b6001600160a01b031614610bcb5760405162461bcd60e51b815260040161022890611a63565b6001600160a01b038116610bf15760405162461bcd60e51b8152600401610228906118f3565b6003546040516001600160a01b038084169216907f8be0079c531659141344cd1fd0a4f28419497f9722a3daafe3b4186f6b6457e090600090a3600380546001600160a01b0319166001600160a01b0392909216919091179055565b6001600160e01b031981166301ffc9a760e01b14919050565b3390565b610c7c846001600160a01b031661113b565b156105a15760405163bc197c8160e01b81526001600160a01b0385169063bc197c8190610cb5908990899088908890889060040161170a565b602060405180830381600087803b158015610ccf57600080fd5b505af1925050508015610cff575060408051601f3d908101601f19168201909252610cfc9181019061163d565b60015b610d4857610d0b611ccf565b80610d165750610d30565b8060405162461bcd60e51b815260040161022891906117f9565b60405162461bcd60e51b81526004016102289061180c565b6001600160e01b0319811663bc197c8160e01b14610b835760405162461bcd60e51b815260040161022890611860565b80546001019055565b5490565b6001600160a01b038416610dab5760405162461bcd60e51b815260040161022890611b72565b6000610db5610c66565b9050610dc781600087610a8188611011565b6000848152602081815260408083206001600160a01b038916845290915281208054859290610df7908490611c18565b92505081905550846001600160a01b031660006001600160a01b0316826001600160a01b03167fc3d58168c5ae7397731d063d5bbf3d657854427343f4c083240f7aacaa2d0f628787604051610e4e929190611bbc565b60405180910390a4610e658160008787878761106a565b5050505050565b60008281526005602090815260409091208251610e8b92840190611141565b505050565b6001600160a01b038416610eb65760405162461bcd60e51b815260040161022890611b72565b8151835114610ed75760405162461bcd60e51b815260040161022890611b2a565b6000610ee1610c66565b9050610ef2816000878787876105a1565b60005b8451811015610fa957838181518110610f1e57634e487b7160e01b600052603260045260246000fd5b6020026020010151600080878481518110610f4957634e487b7160e01b600052603260045260246000fd5b602002602001015181526020019081526020016000206000886001600160a01b03166001600160a01b031681526020019081526020016000206000828254610f919190611c18565b90915550819050610fa181611c82565b915050610ef5565b50846001600160a01b031660006001600160a01b0316826001600160a01b03167f4a39dc06d4c0dbc64b70af90fd698a233a518aa5d07e595d983b8c0526c8f7fb8787604051610ffa9291906117c0565b60405180910390a4610e6581600087878787610c6a565b6040805160018082528183019092526060916000919060208083019080368337019050509050828160008151811061105957634e487b7160e01b600052603260045260246000fd5b602090810291909101015292915050565b61107c846001600160a01b031661113b565b156105a15760405163f23a6e6160e01b81526001600160a01b0385169063f23a6e61906110b59089908990889088908890600401611768565b602060405180830381600087803b1580156110cf57600080fd5b505af19250505080156110ff575060408051601f3d908101601f191682019092526110fc9181019061163d565b60015b61110b57610d0b611ccf565b6001600160e01b0319811663f23a6e6160e01b14610b835760405162461bcd60e51b815260040161022890611860565b3b151590565b82805461114d90611c47565b90600052602060002090601f01602090048101928261116f57600085556111b5565b82601f1061118857805160ff19168380011785556111b5565b828001600101855582156111b5579182015b828111156111b557825182559160200191906001019061119a565b506111c19291506111c5565b5090565b5b808211156111c157600081556001016111c6565b80356001600160a01b038116811461029a57600080fd5b600082601f830112611201578081fd5b8135602061121661121183611bf4565b611bca565b8281528181019085830183850287018401881015611232578586fd5b855b8581101561125057813584529284019290840190600101611234565b5090979650505050505050565b600082601f83011261126d578081fd5b813567ffffffffffffffff81111561128757611287611cb3565b61129a601f8201601f1916602001611bca565b8181528460208386010111156112ae578283fd5b816020850160208301379081016020019190915292915050565b6000602082840312156112d9578081fd5b6112e2826111da565b9392505050565b600080604083850312156112fb578081fd5b611304836111da565b9150611312602084016111da565b90509250929050565b600080600080600060a08688031215611332578081fd5b61133b866111da565b9450611349602087016111da565b9350604086013567ffffffffffffffff80821115611365578283fd5b61137189838a016111f1565b94506060880135915080821115611386578283fd5b61139289838a016111f1565b935060808801359150808211156113a7578283fd5b506113b48882890161125d565b9150509295509295909350565b600080600080600060a086880312156113d8578081fd5b6113e1866111da565b94506113ef602087016111da565b93506040860135925060608601359150608086013567ffffffffffffffff811115611418578182fd5b6113b48882890161125d565b60008060408385031215611436578182fd5b61143f836111da565b915060208084013567ffffffffffffffff81111561145b578283fd5b8401601f8101861361146b578283fd5b803561147961121182611bf4565b81815283810190838501865b848110156114ae5761149c8b88843589010161125d565b84529286019290860190600101611485565b5096999098509650505050505050565b600080604083850312156114d0578182fd5b6114d9836111da565b9150602083013580151581146114ed578182fd5b809150509250929050565b6000806040838503121561150a578182fd5b611513836111da565b9150602083013567ffffffffffffffff81111561152e578182fd5b61153a8582860161125d565b9150509250929050565b60008060408385031215611556578182fd5b61155f836111da565b946020939093013593505050565b6000806040838503121561157f578182fd5b823567ffffffffffffffff80821115611596578384fd5b818501915085601f8301126115a9578384fd5b813560206115b961121183611bf4565b82815281810190858301838502870184018b10156115d5578889fd5b8896505b848710156115fe576115ea816111da565b8352600196909601959183019183016115d9565b5096505086013592505080821115611614578283fd5b5061153a858286016111f1565b600060208284031215611632578081fd5b81356112e281611d74565b60006020828403121561164e578081fd5b81516112e281611d74565b60006020828403121561166a578081fd5b5035919050565b6000815180845260208085019450808401835b838110156116a057815187529582019590820190600101611684565b509495945050505050565b60008151808452815b818110156116d0576020818501810151868301820152016116b4565b818111156116e15782602083870101525b50601f01601f19169290920160200192915050565b6001600160a01b0391909116815260200190565b6001600160a01b0386811682528516602082015260a06040820181905260009061173690830186611671565b82810360608401526117488186611671565b9050828103608084015261175c81856116ab565b98975050505050505050565b6001600160a01b03868116825285166020820152604081018490526060810183905260a0608082018190526000906117a2908301846116ab565b979650505050505050565b6000602082526112e26020830184611671565b6000604082526117d36040830185611671565b82810360208401526117e58185611671565b95945050505050565b901515815260200190565b6000602082526112e260208301846116ab565b60208082526034908201527f455243313135353a207472616e7366657220746f206e6f6e20455243313135356040820152732932b1b2b4bb32b91034b6b83632b6b2b73a32b960611b606082015260800190565b60208082526028908201527f455243313135353a204552433131353552656365697665722072656a656374656040820152676420746f6b656e7360c01b606082015260800190565b6020808252602b908201527f455243313135353a2062616c616e636520717565727920666f7220746865207a60408201526a65726f206164647265737360a81b606082015260800190565b60208082526026908201527f4f776e61626c653a206e6577206f776e657220697320746865207a65726f206160408201526564647265737360d01b606082015260800190565b60208082526029908201527f455243313135353a2063616c6c6572206973206e6f74206f776e6572206e6f7260408201526808185c1c1c9bdd995960ba1b606082015260800190565b60208082526025908201527f455243313135353a207472616e7366657220746f20746865207a65726f206164604082015264647265737360d81b606082015260800190565b60208082526032908201527f455243313135353a207472616e736665722063616c6c6572206973206e6f74206040820152711bdddb995c881b9bdc88185c1c1c9bdd995960721b606082015260800190565b6020808252602a908201527f455243313135353a20696e73756666696369656e742062616c616e636520666f60408201526939103a3930b739b332b960b11b606082015260800190565b6020808252818101527f4f776e61626c653a2063616c6c6572206973206e6f7420746865206f776e6572604082015260600190565b60208082526029908201527f455243313135353a2073657474696e6720617070726f76616c20737461747573604082015268103337b91039b2b63360b91b606082015260800190565b60208082526029908201527f455243313135353a206163636f756e747320616e6420696473206c656e677468604082015268040dad2e6dac2e8c6d60bb1b606082015260800190565b60208082526028908201527f455243313135353a2069647320616e6420616d6f756e7473206c656e677468206040820152670dad2e6dac2e8c6d60c31b606082015260800190565b60208082526021908201527f455243313135353a206d696e7420746f20746865207a65726f206164647265736040820152607360f81b606082015260800190565b90815260200190565b918252602082015260400190565b60405181810167ffffffffffffffff81118282101715611bec57611bec611cb3565b604052919050565b600067ffffffffffffffff821115611c0e57611c0e611cb3565b5060209081020190565b60008219821115611c2b57611c2b611c9d565b500190565b600082821015611c4257611c42611c9d565b500390565b600281046001821680611c5b57607f821691505b60208210811415611c7c57634e487b7160e01b600052602260045260246000fd5b50919050565b6000600019821415611c9657611c96611c9d565b5060010190565b634e487b7160e01b600052601160045260246000fd5b634e487b7160e01b600052604160045260246000fd5b60e01c90565b600060443d1015611cdf5761075f565b600481823e6308c379a0611cf38251611cc9565b14611cfd5761075f565b6040513d600319016004823e80513d67ffffffffffffffff8160248401118184111715611d2d575050505061075f565b82840192508251915080821115611d47575050505061075f565b503d83016020828401011115611d5f5750505061075f565b601f01601f1916810160200160405291505090565b6001600160e01b031981168114611d8a57600080fd5b5056fea26469706673582212200ba5cefe6da974ecff43a25d183899bbd9036db1b2ae71ead1adf1f8924a498b64736f6c63430008000033",
  "linkReferences": {},
  "deployedLinkReferences": {}
}